{
  "abi": [
    {
      "inputs": [],
      "stateMutability": "nonpayable",
      "type": "constructor"
    },
    {
      "anonymous": false,
      "inputs": [
        {
          "indexed": true,
          "internalType": "address",
          "name": "owner",
          "type": "address"
        },
        {
          "indexed": true,
          "internalType": "address",
          "name": "approved",
          "type": "address"
        },
        {
          "indexed": true,
          "internalType": "uint256",
          "name": "tokenId",
          "type": "uint256"
        }
      ],
      "name": "Approval",
      "type": "event"
    },
    {
      "anonymous": false,
      "inputs": [
        {
          "indexed": true,
          "internalType": "address",
          "name": "owner",
          "type": "address"
        },
        {
          "indexed": true,
          "internalType": "address",
          "name": "operator",
          "type": "address"
        },
        {
          "indexed": false,
          "internalType": "bool",
          "name": "approved",
          "type": "bool"
        }
      ],
      "name": "ApprovalForAll",
      "type": "event"
    },
    {
      "inputs": [
        {
          "internalType": "address",
          "name": "to",
          "type": "address"
        },
        {
          "internalType": "uint256",
          "name": "tokenId",
          "type": "uint256"
        }
      ],
      "name": "approve",
      "outputs": [],
      "stateMutability": "nonpayable",
      "type": "function"
    },
    {
      "inputs": [
        {
          "internalType": "address",
          "name": "recipient",
          "type": "address"
        },
        {
          "internalType": "string",
          "name": "tokenURI",
          "type": "string"
        }
      ],
      "name": "mintNFT",
      "outputs": [
        {
          "internalType": "uint256",
          "name": "",
          "type": "uint256"
        }
      ],
      "stateMutability": "payable",
      "type": "function"
    },
    {
      "anonymous": false,
      "inputs": [
        {
          "indexed": true,
          "internalType": "address",
          "name": "previousOwner",
          "type": "address"
        },
        {
          "indexed": true,
          "internalType": "address",
          "name": "newOwner",
          "type": "address"
        }
      ],
      "name": "OwnershipTransferred",
      "type": "event"
    },
    {
      "inputs": [],
      "name": "renounceOwnership",
      "outputs": [],
      "stateMutability": "nonpayable",
      "type": "function"
    },
    {
      "inputs": [
        {
          "internalType": "address",
          "name": "from",
          "type": "address"
        },
        {
          "internalType": "address",
          "name": "to",
          "type": "address"
        },
        {
          "internalType": "uint256",
          "name": "tokenId",
          "type": "uint256"
        }
      ],
      "name": "safeTransferFrom",
      "outputs": [],
      "stateMutability": "nonpayable",
      "type": "function"
    },
    {
      "inputs": [
        {
          "internalType": "address",
          "name": "from",
          "type": "address"
        },
        {
          "internalType": "address",
          "name": "to",
          "type": "address"
        },
        {
          "internalType": "uint256",
          "name": "tokenId",
          "type": "uint256"
        },
        {
          "internalType": "bytes",
          "name": "data",
          "type": "bytes"
        }
      ],
      "name": "safeTransferFrom",
      "outputs": [],
      "stateMutability": "nonpayable",
      "type": "function"
    },
    {
      "inputs": [
        {
          "internalType": "address",
          "name": "operator",
          "type": "address"
        },
        {
          "internalType": "bool",
          "name": "approved",
          "type": "bool"
        }
      ],
      "name": "setApprovalForAll",
      "outputs": [],
      "stateMutability": "nonpayable",
      "type": "function"
    },
    {
      "anonymous": false,
      "inputs": [
        {
          "indexed": true,
          "internalType": "address",
          "name": "from",
          "type": "address"
        },
        {
          "indexed": true,
          "internalType": "address",
          "name": "to",
          "type": "address"
        },
        {
          "indexed": true,
          "internalType": "uint256",
          "name": "tokenId",
          "type": "uint256"
        }
      ],
      "name": "Transfer",
      "type": "event"
    },
    {
      "inputs": [
        {
          "internalType": "address",
          "name": "from",
          "type": "address"
        },
        {
          "internalType": "address",
          "name": "to",
          "type": "address"
        },
        {
          "internalType": "uint256",
          "name": "tokenId",
          "type": "uint256"
        }
      ],
      "name": "transferFrom",
      "outputs": [],
      "stateMutability": "nonpayable",
      "type": "function"
    },
    {
      "inputs": [
        {
          "internalType": "address",
          "name": "newOwner",
          "type": "address"
        }
      ],
      "name": "transferOwnership",
      "outputs": [],
      "stateMutability": "nonpayable",
      "type": "function"
    },
    {
      "inputs": [],
      "name": "withdrawAll",
      "outputs": [],
      "stateMutability": "payable",
      "type": "function"
    },
    {
      "inputs": [
        {
          "internalType": "address",
          "name": "",
          "type": "address"
        }
      ],
      "name": "addressToTokenId",
      "outputs": [
        {
          "internalType": "uint256",
          "name": "",
          "type": "uint256"
        }
      ],
      "stateMutability": "view",
      "type": "function"
    },
    {
      "inputs": [
        {
          "internalType": "address",
          "name": "owner",
          "type": "address"
        }
      ],
      "name": "balanceOf",
      "outputs": [
        {
          "internalType": "uint256",
          "name": "",
          "type": "uint256"
        }
      ],
      "stateMutability": "view",
      "type": "function"
    },
    {
      "inputs": [
        {
          "internalType": "uint256",
          "name": "tokenId",
          "type": "uint256"
        }
      ],
      "name": "getApproved",
      "outputs": [
        {
          "internalType": "address",
          "name": "",
          "type": "address"
        }
      ],
      "stateMutability": "view",
      "type": "function"
    },
    {
      "inputs": [
        {
          "internalType": "address",
          "name": "owner",
          "type": "address"
        },
        {
          "internalType": "address",
          "name": "operator",
          "type": "address"
        }
      ],
      "name": "isApprovedForAll",
      "outputs": [
        {
          "internalType": "bool",
          "name": "",
          "type": "bool"
        }
      ],
      "stateMutability": "view",
      "type": "function"
    },
    {
      "inputs": [],
      "name": "name",
      "outputs": [
        {
          "internalType": "string",
          "name": "",
          "type": "string"
        }
      ],
      "stateMutability": "view",
      "type": "function"
    },
    {
      "inputs": [],
      "name": "owner",
      "outputs": [
        {
          "internalType": "address",
          "name": "",
          "type": "address"
        }
      ],
      "stateMutability": "view",
      "type": "function"
    },
    {
      "inputs": [
        {
          "internalType": "uint256",
          "name": "tokenId",
          "type": "uint256"
        }
      ],
      "name": "ownerOf",
      "outputs": [
        {
          "internalType": "address",
          "name": "",
          "type": "address"
        }
      ],
      "stateMutability": "view",
      "type": "function"
    },
    {
      "inputs": [],
      "name": "price",
      "outputs": [
        {
          "internalType": "uint256",
          "name": "",
          "type": "uint256"
        }
      ],
      "stateMutability": "view",
      "type": "function"
    },
    {
      "inputs": [
        {
          "internalType": "bytes4",
          "name": "interfaceId",
          "type": "bytes4"
        }
      ],
      "name": "supportsInterface",
      "outputs": [
        {
          "internalType": "bool",
          "name": "",
          "type": "bool"
        }
      ],
      "stateMutability": "view",
      "type": "function"
    },
    {
      "inputs": [],
      "name": "symbol",
      "outputs": [
        {
          "internalType": "string",
          "name": "",
          "type": "string"
        }
      ],
      "stateMutability": "view",
      "type": "function"
    },
    {
      "inputs": [],
      "name": "tokenCounter",
      "outputs": [
        {
          "internalType": "uint256",
          "name": "",
          "type": "uint256"
        }
      ],
      "stateMutability": "view",
      "type": "function"
    },
    {
      "inputs": [
        {
          "internalType": "uint256",
          "name": "tokenId",
          "type": "uint256"
        }
      ],
      "name": "tokenURI",
      "outputs": [
        {
          "internalType": "string",
          "name": "",
          "type": "string"
        }
      ],
      "stateMutability": "view",
      "type": "function"
    },
    {
      "inputs": [],
      "name": "viewTokenCounter",
      "outputs": [
        {
          "internalType": "uint256",
          "name": "",
          "type": "uint256"
        }
      ],
      "stateMutability": "view",
      "type": "function"
    }
  ],
  "bytecode": {
    "object": "0x608060405267016345785d8a00006008553480156200001d57600080fd5b5060405180604001604052806008815260200167149e5b9bc813919560c21b8152506040518060400160405280600381526020016214965160ea1b81525081600090816200006c919062000199565b5060016200007b828262000199565b50505062000098620000926200009e60201b60201c565b620000a2565b62000265565b3390565b600780546001600160a01b038381166001600160a01b0319831681179093556040519116919082907f8be0079c531659141344cd1fd0a4f28419497f9722a3daafe3b4186f6b6457e090600090a35050565b634e487b7160e01b600052604160045260246000fd5b600181811c908216806200011f57607f821691505b6020821081036200014057634e487b7160e01b600052602260045260246000fd5b50919050565b601f8211156200019457600081815260208120601f850160051c810160208610156200016f5750805b601f850160051c820191505b8181101562000190578281556001016200017b565b5050505b505050565b81516001600160401b03811115620001b557620001b5620000f4565b620001cd81620001c684546200010a565b8462000146565b602080601f831160018114620002055760008415620001ec5750858301515b600019600386901b1c1916600185901b17855562000190565b600085815260208120601f198616915b82811015620002365788860151825594840194600190910190840162000215565b5085821015620002555787850151600019600388901b60f8161c191681555b5050505050600190811b01905550565b611a1280620002756000396000f3fe6080604052600436106101145760003560e01c8063853828b6116100a0578063a22cb46511610064578063a22cb465146102fb578063b88d4fde1461031b578063c87b56dd1461033b578063e985e9c51461035b578063f2fde38b1461037b57600080fd5b8063853828b61461026d5780638da5cb5b146102755780638f8391531461029357806395d89b41146102d0578063a035b1fe146102e557600080fd5b806323b872dd116100e757806323b872dd146101ca57806342842e0e146101ea5780636352211e1461020a57806370a082311461022a578063715018a61461025857600080fd5b806301ffc9a71461011957806306fdde031461014e578063081812fc14610170578063095ea7b3146101a8575b600080fd5b34801561012557600080fd5b506101396101343660046113d3565b61039b565b60405190151581526020015b60405180910390f35b34801561015a57600080fd5b506101636103ed565b6040516101459190611440565b34801561017c57600080fd5b5061019061018b366004611453565b61047f565b6040516001600160a01b039091168152602001610145565b3480156101b457600080fd5b506101c86101c3366004611488565b6104a6565b005b3480156101d657600080fd5b506101c86101e53660046114b2565b6105c0565b3480156101f657600080fd5b506101c86102053660046114b2565b6105f1565b34801561021657600080fd5b50610190610225366004611453565b61060c565b34801561023657600080fd5b5061024a6102453660046114ee565b61066c565b604051908152602001610145565b34801561026457600080fd5b506101c86106f2565b6101c8610706565b34801561028157600080fd5b506007546001600160a01b0316610190565b34801561029f57600080fd5b506102b36102ae366004611595565b6107b1565b604080519283526001600160a01b03909116602083015201610145565b3480156102dc57600080fd5b506101636107d3565b3480156102f157600080fd5b5061024a60085481565b34801561030757600080fd5b506101c8610316366004611600565b6107e2565b34801561032757600080fd5b506101c861033636600461163c565b6107f1565b34801561034757600080fd5b50610163610356366004611453565b610829565b34801561036757600080fd5b506101396103763660046116b8565b610939565b34801561038757600080fd5b506101c86103963660046114ee565b610967565b60006001600160e01b031982166380ac58cd60e01b14806103cc57506001600160e01b03198216635b5e139f60e01b145b806103e757506301ffc9a760e01b6001600160e01b03198316145b92915050565b6060600080546103fc906116eb565b80601f0160208091040260200160405190810160405280929190818152602001828054610428906116eb565b80156104755780601f1061044a57610100808354040283529160200191610475565b820191906000526020600020905b81548152906001019060200180831161045857829003601f168201915b5050505050905090565b600061048a826109e0565b506000908152600460205260409020546001600160a01b031690565b60006104b18261060c565b9050806001600160a01b0316836001600160a01b0316036105235760405162461bcd60e51b815260206004820152602160248201527f4552433732313a20617070726f76616c20746f2063757272656e74206f776e656044820152603960f91b60648201526084015b60405180910390fd5b336001600160a01b038216148061053f575061053f8133610939565b6105b15760405162461bcd60e51b815260206004820152603d60248201527f4552433732313a20617070726f76652063616c6c6572206973206e6f7420746f60448201527f6b656e206f776e6572206f7220617070726f76656420666f7220616c6c000000606482015260840161051a565b6105bb8383610a3f565b505050565b6105ca3382610aad565b6105e65760405162461bcd60e51b815260040161051a90611725565b6105bb838383610b0b565b6105bb838383604051806020016040528060008152506107f1565b6000818152600260205260408120546001600160a01b0316806103e75760405162461bcd60e51b8152602060048201526018602482015277115490cdcc8c4e881a5b9d985b1a59081d1bdad95b88125160421b604482015260640161051a565b60006001600160a01b0382166106d65760405162461bcd60e51b815260206004820152602960248201527f4552433732313a2061646472657373207a65726f206973206e6f7420612076616044820152683634b21037bbb732b960b91b606482015260840161051a565b506001600160a01b031660009081526003602052604090205490565b6106fa610c7c565b6107046000610cd6565b565b61070e610c7c565b6040514790819060009073d5afc45d9b5aaa56923a33419c63c04032ffb6d99083908381818185875af1925050503d8060008114610768576040519150601f19603f3d011682016040523d82523d6000602084013e61076d565b606091505b50509050806105bb5760405162461bcd60e51b815260206004820152601060248201526f2a3930b739b332b9103330b4b632b21760811b604482015260640161051a565b6000806107be8486610d28565b6107c88584610ec1565b509293339350915050565b6060600180546103fc906116eb565b6107ed338383610f54565b5050565b6107fb3383610aad565b6108175760405162461bcd60e51b815260040161051a90611725565b61082384848484611022565b50505050565b6060610834826109e0565b6000828152600660205260408120805461084d906116eb565b80601f0160208091040260200160405190810160405280929190818152602001828054610879906116eb565b80156108c65780601f1061089b576101008083540402835291602001916108c6565b820191906000526020600020905b8154815290600101906020018083116108a957829003601f168201915b5050505050905060006108e460408051602081019091526000815290565b905080516000036108f6575092915050565b815115610928578082604051602001610910929190611772565b60405160208183030381529060405292505050919050565b61093184611055565b949350505050565b6001600160a01b03918216600090815260056020908152604080832093909416825291909152205460ff1690565b61096f610c7c565b6001600160a01b0381166109d45760405162461bcd60e51b815260206004820152602660248201527f4f776e61626c653a206e6577206f776e657220697320746865207a65726f206160448201526564647265737360d01b606482015260840161051a565b6109dd81610cd6565b50565b6000818152600260205260409020546001600160a01b03166109dd5760405162461bcd60e51b8152602060048201526018602482015277115490cdcc8c4e881a5b9d985b1a59081d1bdad95b88125160421b604482015260640161051a565b600081815260046020526040902080546001600160a01b0319166001600160a01b0384169081179091558190610a748261060c565b6001600160a01b03167f8c5be1e5ebec7d5bd14f71427d1e84f3dd0314c0f7b2291e5b200ac8c7c3b92560405160405180910390a45050565b600080610ab98361060c565b9050806001600160a01b0316846001600160a01b03161480610ae05750610ae08185610939565b806109315750836001600160a01b0316610af98461047f565b6001600160a01b031614949350505050565b826001600160a01b0316610b1e8261060c565b6001600160a01b031614610b445760405162461bcd60e51b815260040161051a906117a1565b6001600160a01b038216610ba65760405162461bcd60e51b8152602060048201526024808201527f4552433732313a207472616e7366657220746f20746865207a65726f206164646044820152637265737360e01b606482015260840161051a565b610bb383838360016110c9565b826001600160a01b0316610bc68261060c565b6001600160a01b031614610bec5760405162461bcd60e51b815260040161051a906117a1565b600081815260046020908152604080832080546001600160a01b03199081169091556001600160a01b0387811680865260038552838620805460001901905590871680865283862080546001019055868652600290945282852080549092168417909155905184937fddf252ad1be2c89b69c2b068fc378daa952ba7f163c4a11628f55a4df523b3ef91a4505050565b6007546001600160a01b031633146107045760405162461bcd60e51b815260206004820181905260248201527f4f776e61626c653a2063616c6c6572206973206e6f7420746865206f776e6572604482015260640161051a565b600780546001600160a01b038381166001600160a01b0319831681179093556040519116919082907f8be0079c531659141344cd1fd0a4f28419497f9722a3daafe3b4186f6b6457e090600090a35050565b6001600160a01b038216610d7e5760405162461bcd60e51b815260206004820181905260248201527f4552433732313a206d696e7420746f20746865207a65726f2061646472657373604482015260640161051a565b6000818152600260205260409020546001600160a01b031615610de35760405162461bcd60e51b815260206004820152601c60248201527f4552433732313a20746f6b656e20616c7265616479206d696e74656400000000604482015260640161051a565b610df16000838360016110c9565b6000818152600260205260409020546001600160a01b031615610e565760405162461bcd60e51b815260206004820152601c60248201527f4552433732313a20746f6b656e20616c7265616479206d696e74656400000000604482015260640161051a565b6001600160a01b038216600081815260036020908152604080832080546001019055848352600290915280822080546001600160a01b0319168417905551839291907fddf252ad1be2c89b69c2b068fc378daa952ba7f163c4a11628f55a4df523b3ef908290a45050565b6000828152600260205260409020546001600160a01b0316610f3c5760405162461bcd60e51b815260206004820152602e60248201527f45524337323155524953746f726167653a2055524920736574206f66206e6f6e60448201526d32bc34b9ba32b73a103a37b5b2b760911b606482015260840161051a565b60008281526006602052604090206105bb8282611834565b816001600160a01b0316836001600160a01b031603610fb55760405162461bcd60e51b815260206004820152601960248201527f4552433732313a20617070726f766520746f2063616c6c657200000000000000604482015260640161051a565b6001600160a01b03838116600081815260056020908152604080832094871680845294825291829020805460ff191686151590811790915591519182527f17307eab39ab6107e8899845ad3d59bd9653f200f220920489ca2b5937696c31910160405180910390a3505050565b61102d848484610b0b565b61103984848484611151565b6108235760405162461bcd60e51b815260040161051a906118f4565b6060611060826109e0565b600061107760408051602081019091526000815290565b9050600081511161109757604051806020016040528060008152506110c2565b806110a184611252565b6040516020016110b2929190611772565b6040516020818303038152906040525b9392505050565b6001811115610823576001600160a01b0384161561110f576001600160a01b0384166000908152600360205260408120805483929061110990849061195c565b90915550505b6001600160a01b03831615610823576001600160a01b0383166000908152600360205260408120805483929061114690849061196f565b909155505050505050565b60006001600160a01b0384163b1561124757604051630a85bd0160e11b81526001600160a01b0385169063150b7a0290611195903390899088908890600401611982565b6020604051808303816000875af19250505080156111d0575060408051601f3d908101601f191682019092526111cd918101906119bf565b60015b61122d573d8080156111fe576040519150601f19603f3d011682016040523d82523d6000602084013e611203565b606091505b5080516000036112255760405162461bcd60e51b815260040161051a906118f4565b805181602001fd5b6001600160e01b031916630a85bd0160e11b149050610931565b506001949350505050565b6060600061125f836112e5565b600101905060008167ffffffffffffffff81111561127f5761127f611509565b6040519080825280601f01601f1916602001820160405280156112a9576020820181803683370190505b5090508181016020015b600019016f181899199a1a9b1b9c1cb0b131b232b360811b600a86061a8153600a85049450846112b357509392505050565b60008072184f03e93ff9f4daa797ed6e38ed64bf6a1f0160401b83106113245772184f03e93ff9f4daa797ed6e38ed64bf6a1f0160401b830492506040015b6d04ee2d6d415b85acef81000000008310611350576d04ee2d6d415b85acef8100000000830492506020015b662386f26fc10000831061136e57662386f26fc10000830492506010015b6305f5e1008310611386576305f5e100830492506008015b612710831061139a57612710830492506004015b606483106113ac576064830492506002015b600a83106103e75760010192915050565b6001600160e01b0319811681146109dd57600080fd5b6000602082840312156113e557600080fd5b81356110c2816113bd565b60005b8381101561140b5781810151838201526020016113f3565b50506000910152565b6000815180845261142c8160208601602086016113f0565b601f01601f19169290920160200192915050565b6020815260006110c26020830184611414565b60006020828403121561146557600080fd5b5035919050565b80356001600160a01b038116811461148357600080fd5b919050565b6000806040838503121561149b57600080fd5b6114a48361146c565b946020939093013593505050565b6000806000606084860312156114c757600080fd5b6114d08461146c565b92506114de6020850161146c565b9150604084013590509250925092565b60006020828403121561150057600080fd5b6110c28261146c565b634e487b7160e01b600052604160045260246000fd5b600067ffffffffffffffff8084111561153a5761153a611509565b604051601f8501601f19908116603f0116810190828211818310171561156257611562611509565b8160405280935085815286868601111561157b57600080fd5b858560208301376000602087830101525050509392505050565b6000806000606084860312156115aa57600080fd5b833592506115ba6020850161146c565b9150604084013567ffffffffffffffff8111156115d657600080fd5b8401601f810186136115e757600080fd5b6115f68682356020840161151f565b9150509250925092565b6000806040838503121561161357600080fd5b61161c8361146c565b91506020830135801515811461163157600080fd5b809150509250929050565b6000806000806080858703121561165257600080fd5b61165b8561146c565b93506116696020860161146c565b925060408501359150606085013567ffffffffffffffff81111561168c57600080fd5b8501601f8101871361169d57600080fd5b6116ac8782356020840161151f565b91505092959194509250565b600080604083850312156116cb57600080fd5b6116d48361146c565b91506116e26020840161146c565b90509250929050565b600181811c908216806116ff57607f821691505b60208210810361171f57634e487b7160e01b600052602260045260246000fd5b50919050565b6020808252602d908201527f4552433732313a2063616c6c6572206973206e6f7420746f6b656e206f776e6560408201526c1c881bdc88185c1c1c9bdd9959609a1b606082015260800190565b600083516117848184602088016113f0565b8351908301906117988183602088016113f0565b01949350505050565b60208082526025908201527f4552433732313a207472616e736665722066726f6d20696e636f72726563742060408201526437bbb732b960d91b606082015260800190565b601f8211156105bb57600081815260208120601f850160051c8101602086101561180d5750805b601f850160051c820191505b8181101561182c57828155600101611819565b505050505050565b815167ffffffffffffffff81111561184e5761184e611509565b6118628161185c84546116eb565b846117e6565b602080601f831160018114611897576000841561187f5750858301515b600019600386901b1c1916600185901b17855561182c565b600085815260208120601f198616915b828110156118c6578886015182559484019460019091019084016118a7565b50858210156118e45787850151600019600388901b60f8161c191681555b5050505050600190811b01905550565b60208082526032908201527f4552433732313a207472616e7366657220746f206e6f6e20455243373231526560408201527131b2b4bb32b91034b6b83632b6b2b73a32b960711b606082015260800190565b634e487b7160e01b600052601160045260246000fd5b818103818111156103e7576103e7611946565b808201808211156103e7576103e7611946565b6001600160a01b03858116825284166020820152604081018390526080606082018190526000906119b590830184611414565b9695505050505050565b6000602082840312156119d157600080fd5b81516110c2816113bd56fea26469706673582212206f0b486bcf38b2f4002905e3fd0efd8a17afe5c998cac4471be9a6bc1268a48464736f6c63430008130033",
    "linkReferences": {}
  },
  "methodIdentifiers": {
    "approve(address,uint256)": "095ea7b3",
    "balanceOf(address)": "70a08231",
    "getApproved(uint256)": "081812fc",
    "isApprovedForAll(address,address)": "e985e9c5",
    "mintNFT(uint256,address,string)": "8f839153",
    "name()": "06fdde03",
    "owner()": "8da5cb5b",
    "ownerOf(uint256)": "6352211e",
    "price()": "a035b1fe",
    "renounceOwnership()": "715018a6",
    "safeTransferFrom(address,address,uint256)": "42842e0e",
    "safeTransferFrom(address,address,uint256,bytes)": "b88d4fde",
    "setApprovalForAll(address,bool)": "a22cb465",
    "supportsInterface(bytes4)": "01ffc9a7",
    "symbol()": "95d89b41",
    "tokenURI(uint256)": "c87b56dd",
    "transferFrom(address,address,uint256)": "23b872dd",
    "transferOwnership(address)": "f2fde38b",
    "withdrawAll()": "853828b6"
  },
  "id": 18
}